{
  "_format": "hh-sol-artifact-1",
  "contractName": "MyEpicNFT",
  "sourceName": "contracts/MyEpicNFT.sol",
  "abi": [
    {
      "inputs": [],
      "stateMutability": "nonpayable",
      "type": "constructor"
    },
    {
      "anonymous": false,
      "inputs": [
        {
          "indexed": true,
          "internalType": "address",
          "name": "owner",
          "type": "address"
        },
        {
          "indexed": true,
          "internalType": "address",
          "name": "approved",
          "type": "address"
        },
        {
          "indexed": true,
          "internalType": "uint256",
          "name": "tokenId",
          "type": "uint256"
        }
      ],
      "name": "Approval",
      "type": "event"
    },
    {
      "anonymous": false,
      "inputs": [
        {
          "indexed": true,
          "internalType": "address",
          "name": "owner",
          "type": "address"
        },
        {
          "indexed": true,
          "internalType": "address",
          "name": "operator",
          "type": "address"
        },
        {
          "indexed": false,
          "internalType": "bool",
          "name": "approved",
          "type": "bool"
        }
      ],
      "name": "ApprovalForAll",
      "type": "event"
    },
    {
      "anonymous": false,
      "inputs": [
        {
          "indexed": false,
          "internalType": "address",
          "name": "sender",
          "type": "address"
        },
        {
          "indexed": false,
          "internalType": "uint256",
          "name": "tokenId",
          "type": "uint256"
        }
      ],
      "name": "NewEpicNFTMinted",
      "type": "event"
    },
    {
      "anonymous": false,
      "inputs": [
        {
          "indexed": true,
          "internalType": "address",
          "name": "from",
          "type": "address"
        },
        {
          "indexed": true,
          "internalType": "address",
          "name": "to",
          "type": "address"
        },
        {
          "indexed": true,
          "internalType": "uint256",
          "name": "tokenId",
          "type": "uint256"
        }
      ],
      "name": "Transfer",
      "type": "event"
    },
    {
      "inputs": [
        {
          "internalType": "address",
          "name": "to",
          "type": "address"
        },
        {
          "internalType": "uint256",
          "name": "tokenId",
          "type": "uint256"
        }
      ],
      "name": "approve",
      "outputs": [],
      "stateMutability": "nonpayable",
      "type": "function"
    },
    {
      "inputs": [
        {
          "internalType": "address",
          "name": "owner",
          "type": "address"
        }
      ],
      "name": "balanceOf",
      "outputs": [
        {
          "internalType": "uint256",
          "name": "",
          "type": "uint256"
        }
      ],
      "stateMutability": "view",
      "type": "function"
    },
    {
      "inputs": [
        {
          "internalType": "uint256",
          "name": "tokenId",
          "type": "uint256"
        }
      ],
      "name": "getApproved",
      "outputs": [
        {
          "internalType": "address",
          "name": "",
          "type": "address"
        }
      ],
      "stateMutability": "view",
      "type": "function"
    },
    {
      "inputs": [],
      "name": "getMaxNFTsMinted",
      "outputs": [
        {
          "internalType": "uint256",
          "name": "",
          "type": "uint256"
        }
      ],
      "stateMutability": "view",
      "type": "function"
    },
    {
      "inputs": [],
      "name": "getTotalNFTsMintedSoFar",
      "outputs": [
        {
          "internalType": "uint256",
          "name": "",
          "type": "uint256"
        }
      ],
      "stateMutability": "view",
      "type": "function"
    },
    {
      "inputs": [
        {
          "internalType": "address",
          "name": "owner",
          "type": "address"
        },
        {
          "internalType": "address",
          "name": "operator",
          "type": "address"
        }
      ],
      "name": "isApprovedForAll",
      "outputs": [
        {
          "internalType": "bool",
          "name": "",
          "type": "bool"
        }
      ],
      "stateMutability": "view",
      "type": "function"
    },
    {
      "inputs": [],
      "name": "makeAnEpicNFT",
      "outputs": [],
      "stateMutability": "nonpayable",
      "type": "function"
    },
    {
      "inputs": [],
      "name": "name",
      "outputs": [
        {
          "internalType": "string",
          "name": "",
          "type": "string"
        }
      ],
      "stateMutability": "view",
      "type": "function"
    },
    {
      "inputs": [
        {
          "internalType": "uint256",
          "name": "tokenId",
          "type": "uint256"
        }
      ],
      "name": "ownerOf",
      "outputs": [
        {
          "internalType": "address",
          "name": "",
          "type": "address"
        }
      ],
      "stateMutability": "view",
      "type": "function"
    },
    {
      "inputs": [
        {
          "internalType": "address",
          "name": "from",
          "type": "address"
        },
        {
          "internalType": "address",
          "name": "to",
          "type": "address"
        },
        {
          "internalType": "uint256",
          "name": "tokenId",
          "type": "uint256"
        }
      ],
      "name": "safeTransferFrom",
      "outputs": [],
      "stateMutability": "nonpayable",
      "type": "function"
    },
    {
      "inputs": [
        {
          "internalType": "address",
          "name": "from",
          "type": "address"
        },
        {
          "internalType": "address",
          "name": "to",
          "type": "address"
        },
        {
          "internalType": "uint256",
          "name": "tokenId",
          "type": "uint256"
        },
        {
          "internalType": "bytes",
          "name": "_data",
          "type": "bytes"
        }
      ],
      "name": "safeTransferFrom",
      "outputs": [],
      "stateMutability": "nonpayable",
      "type": "function"
    },
    {
      "inputs": [
        {
          "internalType": "address",
          "name": "operator",
          "type": "address"
        },
        {
          "internalType": "bool",
          "name": "approved",
          "type": "bool"
        }
      ],
      "name": "setApprovalForAll",
      "outputs": [],
      "stateMutability": "nonpayable",
      "type": "function"
    },
    {
      "inputs": [
        {
          "internalType": "bytes4",
          "name": "interfaceId",
          "type": "bytes4"
        }
      ],
      "name": "supportsInterface",
      "outputs": [
        {
          "internalType": "bool",
          "name": "",
          "type": "bool"
        }
      ],
      "stateMutability": "view",
      "type": "function"
    },
    {
      "inputs": [],
      "name": "symbol",
      "outputs": [
        {
          "internalType": "string",
          "name": "",
          "type": "string"
        }
      ],
      "stateMutability": "view",
      "type": "function"
    },
    {
      "inputs": [
        {
          "internalType": "uint256",
          "name": "tokenId",
          "type": "uint256"
        }
      ],
      "name": "tokenURI",
      "outputs": [
        {
          "internalType": "string",
          "name": "",
          "type": "string"
        }
      ],
      "stateMutability": "view",
      "type": "function"
    },
    {
      "inputs": [
        {
          "internalType": "address",
          "name": "from",
          "type": "address"
        },
        {
          "internalType": "address",
          "name": "to",
          "type": "address"
        },
        {
          "internalType": "uint256",
          "name": "tokenId",
          "type": "uint256"
        }
      ],
      "name": "transferFrom",
      "outputs": [],
      "stateMutability": "nonpayable",
      "type": "function"
    }
  ],
  "bytecode": "0x6080604052604051806101600160405280610131815260200162004c746101319139600890805190602001906200003892919062001017565b506040518061034001604052806040518060400160405280600481526020017f456173790000000000000000000000000000000000000000000000000000000081525081526020016040518060400160405280600881526020017f48616e64736f6d6500000000000000000000000000000000000000000000000081525081526020016040518060400160405280600781526020017f4265727365726b0000000000000000000000000000000000000000000000000081525081526020016040518060400160405280600681526020017f437261626279000000000000000000000000000000000000000000000000000081525081526020016040518060400160405280600881526020017f527574686c65737300000000000000000000000000000000000000000000000081525081526020016040518060400160405280600881526020017f466169746866756c00000000000000000000000000000000000000000000000081525081526020016040518060400160405280600581526020017f4d6163686f00000000000000000000000000000000000000000000000000000081525081526020016040518060400160405280600881526020017f426c757368696e6700000000000000000000000000000000000000000000000081525081526020016040518060400160405280600781526020017f496d6d656e73650000000000000000000000000000000000000000000000000081525081526020016040518060400160405280600581526020017f4d6973747900000000000000000000000000000000000000000000000000000081525081526020016040518060400160405280600681526020017f436c61737379000000000000000000000000000000000000000000000000000081525081526020016040518060400160405280600881526020017f577261746866756c00000000000000000000000000000000000000000000000081525081526020016040518060400160405280600581526020017f4d6561747900000000000000000000000000000000000000000000000000000081525081526020016040518060400160405280600681526020017f46696c746879000000000000000000000000000000000000000000000000000081525081526020016040518060400160405280600681526020017f426f756e6379000000000000000000000000000000000000000000000000000081525081526020016040518060400160405280600581526020017f476964647900000000000000000000000000000000000000000000000000000081525081526020016040518060400160405280600581526020017f5461636b7900000000000000000000000000000000000000000000000000000081525081526020016040518060400160405280600581526020017f486170707900000000000000000000000000000000000000000000000000000081525081526020016040518060400160405280600681526020017f537570657262000000000000000000000000000000000000000000000000000081525081526020016040518060400160405280600681526020017f436c616d6d79000000000000000000000000000000000000000000000000000081525081526020016040518060400160405280600881526020017f446572616e67656400000000000000000000000000000000000000000000000081525081526020016040518060400160405280600781526020017f526174636865740000000000000000000000000000000000000000000000000081525081526020016040518060400160405280600581526020017f4c65616b7900000000000000000000000000000000000000000000000000000081525081526020016040518060400160405280600681526020017f48756e677279000000000000000000000000000000000000000000000000000081525081526020016040518060400160405280600681526020017f536d656c6c79000000000000000000000000000000000000000000000000000081525081526020016040518060400160405280600881526020017f4c757363696f7573000000000000000000000000000000000000000000000000815250815250600990601a62000653929190620010a8565b506040518061044001604052806040518060400160405280600581526020017f426c6f6f6400000000000000000000000000000000000000000000000000000081525081526020016040518060400160405280600681526020017f427265617468000000000000000000000000000000000000000000000000000081525081526020016040518060400160405280600481526020017f486169720000000000000000000000000000000000000000000000000000000081525081526020016040518060400160405280600481526020017f536f75700000000000000000000000000000000000000000000000000000000081525081526020016040518060400160405280600381526020017f506965000000000000000000000000000000000000000000000000000000000081525081526020016040518060400160405280600581526020017f536869727400000000000000000000000000000000000000000000000000000081525081526020016040518060400160405280600581526020017f446561746800000000000000000000000000000000000000000000000000000081525081526020016040518060400160405280600481526020017f576f6f640000000000000000000000000000000000000000000000000000000081525081526020016040518060400160405280600481526020017f4d6174680000000000000000000000000000000000000000000000000000000081525081526020016040518060400160405280600681526020017f546f6e677565000000000000000000000000000000000000000000000000000081525081526020016040518060400160405280600581526020017f547275746800000000000000000000000000000000000000000000000000000081525081526020016040518060400160405280600381526020017f4d6170000000000000000000000000000000000000000000000000000000000081525081526020016040518060400160405280600381526020017f506967000000000000000000000000000000000000000000000000000000000081525081526020016040518060400160405280600481526020017f576f6c660000000000000000000000000000000000000000000000000000000081525081526020016040518060400160405280600381526020017f436174000000000000000000000000000000000000000000000000000000000081525081526020016040518060400160405280600381526020017f446f67000000000000000000000000000000000000000000000000000000000081525081526020016040518060400160405280600581526020017f50686f6e6500000000000000000000000000000000000000000000000000000081525081526020016040518060400160405280600581526020017f427265616400000000000000000000000000000000000000000000000000000081525081526020016040518060400160405280600481526020017f426174680000000000000000000000000000000000000000000000000000000081525081526020016040518060400160405280600381526020017f546561000000000000000000000000000000000000000000000000000000000081525081526020016040518060400160405280600481526020017f426565720000000000000000000000000000000000000000000000000000000081525081526020016040518060400160405280600481526020017f4b696e670000000000000000000000000000000000000000000000000000000081525081526020016040518060400160405280600481526020017f576966650000000000000000000000000000000000000000000000000000000081525081526020016040518060400160405280600581526020017f436865737400000000000000000000000000000000000000000000000000000081525081526020016040518060400160405280600681526020017f466c69676874000000000000000000000000000000000000000000000000000081525081526020016040518060400160405280600581526020017f436865656b00000000000000000000000000000000000000000000000000000081525081526020016040518060400160405280600381526020017f4d7564000000000000000000000000000000000000000000000000000000000081525081526020016040518060400160405280600481526020017f4769726c0000000000000000000000000000000000000000000000000000000081525081526020016040518060400160405280600381526020017f486174000000000000000000000000000000000000000000000000000000000081525081526020016040518060400160405280600581526020017f517565656e00000000000000000000000000000000000000000000000000000081525081526020016040518060400160405280600381526020017f4c6162000000000000000000000000000000000000000000000000000000000081525081526020016040518060400160405280600581526020017f4d6f6e746800000000000000000000000000000000000000000000000000000081525081526020016040518060400160405280600481526020017f446972740000000000000000000000000000000000000000000000000000000081525081526020016040518060400160405280600381526020017f4461790000000000000000000000000000000000000000000000000000000000815250815250600a90602262000e469291906200110f565b506064600b5534801562000e5957600080fd5b506040518060400160405280600981526020017f5371756172654e465400000000000000000000000000000000000000000000008152506040518060400160405280600681526020017f5351554152450000000000000000000000000000000000000000000000000000815250816000908051906020019062000ede92919062001017565b50806001908051906020019062000ef792919062001017565b50505062000f456040518060400160405280601e81526020017f54686973206973206d79204e465420636f6e74726163742e20576f616821000081525062000f4b60201b6200110e1760201c565b62001330565b62000feb8160405160240162000f62919062001244565b6040516020818303038152906040527f41304fac000000000000000000000000000000000000000000000000000000007bffffffffffffffffffffffffffffffffffffffffffffffffffffffff19166020820180517bffffffffffffffffffffffffffffffffffffffffffffffffffffffff838183161783525050505062000fee60201b60201c565b50565b60008151905060006a636f6e736f6c652e6c6f679050602083016000808483855afa5050505050565b8280546200102590620012ba565b90600052602060002090601f01602090048101928262001049576000855562001095565b82601f106200106457805160ff191683800117855562001095565b8280016001018555821562001095579182015b828111156200109457825182559160200191906001019062001077565b5b509050620010a4919062001176565b5090565b828054828255906000526020600020908101928215620010fc579160200282015b82811115620010fb578251829080519060200190620010ea92919062001017565b5091602001919060010190620010c9565b5b5090506200110b919062001195565b5090565b82805482825590600052602060002090810192821562001163579160200282015b82811115620011625782518290805190602001906200115192919062001017565b509160200191906001019062001130565b5b50905062001172919062001195565b5090565b5b808211156200119157600081600090555060010162001177565b5090565b5b80821115620011b95760008181620011af9190620011bd565b5060010162001196565b5090565b508054620011cb90620012ba565b6000825580601f10620011df575062001200565b601f016020900490600052602060002090810190620011ff919062001176565b5b50565b6000620012108262001268565b6200121c818562001273565b93506200122e81856020860162001284565b62001239816200131f565b840191505092915050565b6000602082019050818103600083015262001260818462001203565b905092915050565b600081519050919050565b600082825260208201905092915050565b60005b83811015620012a457808201518184015260208101905062001287565b83811115620012b4576000848401525b50505050565b60006002820490506001821680620012d357607f821691505b60208210811415620012ea57620012e9620012f0565b5b50919050565b7f4e487b7100000000000000000000000000000000000000000000000000000000600052602260045260246000fd5b6000601f19601f8301169050919050565b61393480620013406000396000f3fe608060405234801561001057600080fd5b50600436106101005760003560e01c806370a0823111610097578063b88d4fde11610066578063b88d4fde146102ad578063c87b56dd146102c9578063de9d132f146102f9578063e985e9c51461030357610100565b806370a0823114610225578063751fdf2e1461025557806395d89b4114610273578063a22cb4651461029157610100565b8063095ea7b3116100d3578063095ea7b3146101a157806323b872dd146101bd57806342842e0e146101d95780636352211e146101f557610100565b806301ffc9a714610105578063060475901461013557806306fdde0314610153578063081812fc14610171575b600080fd5b61011f600480360381019061011a91906125a0565b610333565b60405161012c919061318a565b60405180910390f35b61013d610415565b60405161014a9190613425565b60405180910390f35b61015b610426565b60405161016891906131a5565b60405180910390f35b61018b600480360381019061018691906125f2565b6104b8565b60405161019891906130fa565b60405180910390f35b6101bb60048036038101906101b69190612564565b61053d565b005b6101d760048036038101906101d2919061245e565b610655565b005b6101f360048036038101906101ee919061245e565b6106b5565b005b61020f600480360381019061020a91906125f2565b6106d5565b60405161021c91906130fa565b60405180910390f35b61023f600480360381019061023a91906123f9565b610787565b60405161024c9190613425565b60405180910390f35b61025d61083f565b60405161026a9190613425565b60405180910390f35b61027b610849565b60405161028891906131a5565b60405180910390f35b6102ab60048036038101906102a69190612528565b6108db565b005b6102c760048036038101906102c291906124ad565b6108f1565b005b6102e360048036038101906102de91906125f2565b610953565b6040516102f091906131a5565b60405180910390f35b610301610aa5565b005b61031d60048036038101906103189190612422565b61107a565b60405161032a919061318a565b60405180910390f35b60007f80ac58cd000000000000000000000000000000000000000000000000000000007bffffffffffffffffffffffffffffffffffffffffffffffffffffffff1916827bffffffffffffffffffffffffffffffffffffffffffffffffffffffff191614806103fe57507f5b5e139f000000000000000000000000000000000000000000000000000000007bffffffffffffffffffffffffffffffffffffffffffffffffffffffff1916827bffffffffffffffffffffffffffffffffffffffffffffffffffffffff1916145b8061040e575061040d826111a7565b5b9050919050565b60006104216007611211565b905090565b606060008054610435906136c4565b80601f0160208091040260200160405190810160405280929190818152602001828054610461906136c4565b80156104ae5780601f10610483576101008083540402835291602001916104ae565b820191906000526020600020905b81548152906001019060200180831161049157829003601f168201915b5050505050905090565b60006104c38261121f565b610502576040517f08c379a00000000000000000000000000000000000000000000000000000000081526004016104f990613365565b60405180910390fd5b6004600083815260200190815260200160002060009054906101000a900473ffffffffffffffffffffffffffffffffffffffff169050919050565b6000610548826106d5565b90508073ffffffffffffffffffffffffffffffffffffffff168373ffffffffffffffffffffffffffffffffffffffff1614156105b9576040517f08c379a00000000000000000000000000000000000000000000000000000000081526004016105b0906133c5565b60405180910390fd5b8073ffffffffffffffffffffffffffffffffffffffff166105d861128b565b73ffffffffffffffffffffffffffffffffffffffff16148061060757506106068161060161128b565b61107a565b5b610646576040517f08c379a000000000000000000000000000000000000000000000000000000000815260040161063d906132a5565b60405180910390fd5b6106508383611293565b505050565b61066661066061128b565b8261134c565b6106a5576040517f08c379a000000000000000000000000000000000000000000000000000000000815260040161069c906133e5565b60405180910390fd5b6106b083838361142a565b505050565b6106d0838383604051806020016040528060008152506108f1565b505050565b6000806002600084815260200190815260200160002060009054906101000a900473ffffffffffffffffffffffffffffffffffffffff169050600073ffffffffffffffffffffffffffffffffffffffff168173ffffffffffffffffffffffffffffffffffffffff16141561077e576040517f08c379a0000000000000000000000000000000000000000000000000000000008152600401610775906132e5565b60405180910390fd5b80915050919050565b60008073ffffffffffffffffffffffffffffffffffffffff168273ffffffffffffffffffffffffffffffffffffffff1614156107f8576040517f08c379a00000000000000000000000000000000000000000000000000000000081526004016107ef906132c5565b60405180910390fd5b600360008373ffffffffffffffffffffffffffffffffffffffff1673ffffffffffffffffffffffffffffffffffffffff168152602001908152602001600020549050919050565b6000600b54905090565b606060018054610858906136c4565b80601f0160208091040260200160405190810160405280929190818152602001828054610884906136c4565b80156108d15780601f106108a6576101008083540402835291602001916108d1565b820191906000526020600020905b8154815290600101906020018083116108b457829003601f168201915b5050505050905090565b6108ed6108e661128b565b8383611686565b5050565b6109026108fc61128b565b8361134c565b610941576040517f08c379a0000000000000000000000000000000000000000000000000000000008152600401610938906133e5565b60405180910390fd5b61094d848484846117f3565b50505050565b606061095e8261121f565b61099d576040517f08c379a000000000000000000000000000000000000000000000000000000000815260040161099490613345565b60405180910390fd5b60006006600084815260200190815260200160002080546109bd906136c4565b80601f01602080910402602001604051908101604052809291908181526020018280546109e9906136c4565b8015610a365780601f10610a0b57610100808354040283529160200191610a36565b820191906000526020600020905b815481529060010190602001808311610a1957829003601f168201915b505050505090506000610a4761184f565b9050600081511415610a5d578192505050610aa0565b600082511115610a92578082604051602001610a7a929190612fed565b60405160208183030381529060405292505050610aa0565b610a9b84611866565b925050505b919050565b6001600b54610ab491906135da565b610abe6007611211565b1115610aff576040517f08c379a0000000000000000000000000000000000000000000000000000000008152600401610af690613405565b60405180910390fd5b610b09600761190d565b6000610b156007611211565b90506000610c2a826040518060400160405280600a81526020017f46495253545f574f5244000000000000000000000000000000000000000000008152506009805480602002602001604051908101604052809291908181526020016000905b82821015610c21578382906000526020600020018054610b94906136c4565b80601f0160208091040260200160405190810160405280929190818152602001828054610bc0906136c4565b8015610c0d5780601f10610be257610100808354040283529160200191610c0d565b820191906000526020600020905b815481529060010190602001808311610bf057829003601f168201915b505050505081526020019060010190610b75565b50505050611923565b90506000610d3f836040518060400160405280600b81526020017f5345434f4e445f574f5244000000000000000000000000000000000000000000815250600a805480602002602001604051908101604052809291908181526020016000905b82821015610d36578382906000526020600020018054610ca9906136c4565b80601f0160208091040260200160405190810160405280929190818152602001828054610cd5906136c4565b8015610d225780601f10610cf757610100808354040283529160200191610d22565b820191906000526020600020905b815481529060010190602001808311610d0557829003601f168201915b505050505081526020019060010190610c8a565b50505050611923565b905060008190505b81604051602001610d589190612fd6565b6040516020818303038152906040528051906020012081604051602001610d7f9190612fd6565b604051602081830303815290604052805190602001201415610eb357610eac846040518060400160405280600a81526020017f54484952445f574f524400000000000000000000000000000000000000000000815250600a805480602002602001604051908101604052809291908181526020016000905b82821015610ea3578382906000526020600020018054610e16906136c4565b80601f0160208091040260200160405190810160405280929190818152602001828054610e42906136c4565b8015610e8f5780601f10610e6457610100808354040283529160200191610e8f565b820191906000526020600020905b815481529060010190602001808311610e7257829003601f168201915b505050505081526020019060010190610df7565b50505050611923565b9050610d47565b6000838383604051602001610eca93929190613011565b60405160208183030381529060405290506000600882604051602001610ef1929190613042565b60405160208183030381529060405290506000610f3683610f11846119b5565b604051602001610f22929190613093565b6040516020818303038152906040526119b5565b9050600081604051602001610f4b91906130d8565b6040516020818303038152906040529050610f9a6040518060400160405280601581526020017f0a2d2d2d2d2d2d2d2d2d2d2d2d2d2d2d2d2d2d2d2d000000000000000000000081525061110e565b610fc281604051602001610fae9190613071565b60405160208183030381529060405261110e565b6110006040518060400160405280601581526020017f2d2d2d2d2d2d2d2d2d2d2d2d2d2d2d2d2d2d2d2d0a000000000000000000000081525061110e565b61100a3389611b73565b6110148882611b91565b61103760405180606001604052806025815260200161389a602591398933611c05565b7febb98688741ffa4c7589bf325de30cf7becb63de567842e1ccdb6cb949fdc82c3389604051611068929190613161565b60405180910390a15050505050505050565b6000600560008473ffffffffffffffffffffffffffffffffffffffff1673ffffffffffffffffffffffffffffffffffffffff16815260200190815260200160002060008373ffffffffffffffffffffffffffffffffffffffff1673ffffffffffffffffffffffffffffffffffffffff16815260200190815260200160002060009054906101000a900460ff16905092915050565b6111a48160405160240161112291906131a5565b6040516020818303038152906040527f41304fac000000000000000000000000000000000000000000000000000000007bffffffffffffffffffffffffffffffffffffffffffffffffffffffff19166020820180517bffffffffffffffffffffffffffffffffffffffffffffffffffffffff8381831617835250505050611ca4565b50565b60007f01ffc9a7000000000000000000000000000000000000000000000000000000007bffffffffffffffffffffffffffffffffffffffffffffffffffffffff1916827bffffffffffffffffffffffffffffffffffffffffffffffffffffffff1916149050919050565b600081600001549050919050565b60008073ffffffffffffffffffffffffffffffffffffffff166002600084815260200190815260200160002060009054906101000a900473ffffffffffffffffffffffffffffffffffffffff1673ffffffffffffffffffffffffffffffffffffffff1614159050919050565b600033905090565b816004600083815260200190815260200160002060006101000a81548173ffffffffffffffffffffffffffffffffffffffff021916908373ffffffffffffffffffffffffffffffffffffffff160217905550808273ffffffffffffffffffffffffffffffffffffffff16611306836106d5565b73ffffffffffffffffffffffffffffffffffffffff167f8c5be1e5ebec7d5bd14f71427d1e84f3dd0314c0f7b2291e5b200ac8c7c3b92560405160405180910390a45050565b60006113578261121f565b611396576040517f08c379a000000000000000000000000000000000000000000000000000000000815260040161138d90613285565b60405180910390fd5b60006113a1836106d5565b90508073ffffffffffffffffffffffffffffffffffffffff168473ffffffffffffffffffffffffffffffffffffffff16148061141057508373ffffffffffffffffffffffffffffffffffffffff166113f8846104b8565b73ffffffffffffffffffffffffffffffffffffffff16145b806114215750611420818561107a565b5b91505092915050565b8273ffffffffffffffffffffffffffffffffffffffff1661144a826106d5565b73ffffffffffffffffffffffffffffffffffffffff16146114a0576040517f08c379a000000000000000000000000000000000000000000000000000000000815260040161149790613385565b60405180910390fd5b600073ffffffffffffffffffffffffffffffffffffffff168273ffffffffffffffffffffffffffffffffffffffff161415611510576040517f08c379a000000000000000000000000000000000000000000000000000000000815260040161150790613245565b60405180910390fd5b61151b838383611ccd565b611526600082611293565b6001600360008573ffffffffffffffffffffffffffffffffffffffff1673ffffffffffffffffffffffffffffffffffffffff168152602001908152602001600020600082825461157691906135da565b925050819055506001600360008473ffffffffffffffffffffffffffffffffffffffff1673ffffffffffffffffffffffffffffffffffffffff16815260200190815260200160002060008282546115cd91906134f9565b92505081905550816002600083815260200190815260200160002060006101000a81548173ffffffffffffffffffffffffffffffffffffffff021916908373ffffffffffffffffffffffffffffffffffffffff160217905550808273ffffffffffffffffffffffffffffffffffffffff168473ffffffffffffffffffffffffffffffffffffffff167fddf252ad1be2c89b69c2b068fc378daa952ba7f163c4a11628f55a4df523b3ef60405160405180910390a4505050565b8173ffffffffffffffffffffffffffffffffffffffff168373ffffffffffffffffffffffffffffffffffffffff1614156116f5576040517f08c379a00000000000000000000000000000000000000000000000000000000081526004016116ec90613265565b60405180910390fd5b80600560008573ffffffffffffffffffffffffffffffffffffffff1673ffffffffffffffffffffffffffffffffffffffff16815260200190815260200160002060008473ffffffffffffffffffffffffffffffffffffffff1673ffffffffffffffffffffffffffffffffffffffff16815260200190815260200160002060006101000a81548160ff0219169083151502179055508173ffffffffffffffffffffffffffffffffffffffff168373ffffffffffffffffffffffffffffffffffffffff167f17307eab39ab6107e8899845ad3d59bd9653f200f220920489ca2b5937696c31836040516117e6919061318a565b60405180910390a3505050565b6117fe84848461142a565b61180a84848484611cd2565b611849576040517f08c379a000000000000000000000000000000000000000000000000000000000815260040161184090613205565b60405180910390fd5b50505050565b606060405180602001604052806000815250905090565b60606118718261121f565b6118b0576040517f08c379a00000000000000000000000000000000000000000000000000000000081526004016118a7906133a5565b60405180910390fd5b60006118ba61184f565b905060008151116118da5760405180602001604052806000815250611905565b806118e484611e69565b6040516020016118f5929190612fed565b6040516020818303038152906040525b915050919050565b6001816000016000828254019250508190555050565b606060006119598461193487611e69565b604051602001611945929190612fed565b604051602081830303815290604052612016565b9050825181611968919061373f565b90508281815181106119a3577f4e487b7100000000000000000000000000000000000000000000000000000000600052603260045260246000fd5b60200260200101519150509392505050565b606060008251905060008114156119de5760405180602001604052806000815250915050611b6e565b600060036002836119ef91906134f9565b6119f9919061354f565b6004611a059190613580565b90506000602082611a1691906134f9565b67ffffffffffffffff811115611a55577f4e487b7100000000000000000000000000000000000000000000000000000000600052604160045260246000fd5b6040519080825280601f01601f191660200182016040528015611a875781602001600182028036833780820191505090505b50905060006040518060600160405280604081526020016138bf604091399050600181016020830160005b86811015611b2b5760038101905062ffffff818a015116603f8160121c168401518060081b905060ff603f83600c1c1686015116810190508060081b905060ff603f8360061c1686015116810190508060081b905060ff603f831686015116810190508060e01b90508084526004840193505050611ab2565b506003860660018114611b455760028114611b5557611b60565b613d3d60f01b6002830352611b60565b603d60f81b60018303525b508484525050819450505050505b919050565b611b8d828260405180602001604052806000815250612049565b5050565b611b9a8261121f565b611bd9576040517f08c379a0000000000000000000000000000000000000000000000000000000008152600401611bd090613305565b60405180910390fd5b80600660008481526020019081526020016000209080519060200190611c00929190612285565b505050565b611c9f838383604051602401611c1d939291906131c7565b6040516020818303038152906040527fe3849f79000000000000000000000000000000000000000000000000000000007bffffffffffffffffffffffffffffffffffffffffffffffffffffffff19166020820180517bffffffffffffffffffffffffffffffffffffffffffffffffffffffff8381831617835250505050611ca4565b505050565b60008151905060006a636f6e736f6c652e6c6f679050602083016000808483855afa5050505050565b505050565b6000611cf38473ffffffffffffffffffffffffffffffffffffffff166120a4565b15611e5c578373ffffffffffffffffffffffffffffffffffffffff1663150b7a02611d1c61128b565b8786866040518563ffffffff1660e01b8152600401611d3e9493929190613115565b602060405180830381600087803b158015611d5857600080fd5b505af1925050508015611d8957506040513d601f19601f82011682018060405250810190611d8691906125c9565b60015b611e0c573d8060008114611db9576040519150601f19603f3d011682016040523d82523d6000602084013e611dbe565b606091505b50600081511415611e04576040517f08c379a0000000000000000000000000000000000000000000000000000000008152600401611dfb90613205565b60405180910390fd5b805181602001fd5b63150b7a0260e01b7bffffffffffffffffffffffffffffffffffffffffffffffffffffffff1916817bffffffffffffffffffffffffffffffffffffffffffffffffffffffff191614915050611e61565b600190505b949350505050565b60606000821415611eb1576040518060400160405280600181526020017f30000000000000000000000000000000000000000000000000000000000000008152509050612011565b600082905060005b60008214611ee3578080611ecc906136f6565b915050600a82611edc919061354f565b9150611eb9565b60008167ffffffffffffffff811115611f25577f4e487b7100000000000000000000000000000000000000000000000000000000600052604160045260246000fd5b6040519080825280601f01601f191660200182016040528015611f575781602001600182028036833780820191505090505b5090505b6000851461200a57600182611f7091906135da565b9150600a85611f7f919061373f565b6030611f8b91906134f9565b60f81b818381518110611fc7577f4e487b7100000000000000000000000000000000000000000000000000000000600052603260045260246000fd5b60200101907effffffffffffffffffffffffffffffffffffffffffffffffffffffffffffff1916908160001a905350600a85612003919061354f565b9450611f5b565b8093505050505b919050565b6000816040516020016120299190612fd6565b6040516020818303038152906040528051906020012060001c9050919050565b61205383836120b7565b6120606000848484611cd2565b61209f576040517f08c379a000000000000000000000000000000000000000000000000000000000815260040161209690613205565b60405180910390fd5b505050565b600080823b905060008111915050919050565b600073ffffffffffffffffffffffffffffffffffffffff168273ffffffffffffffffffffffffffffffffffffffff161415612127576040517f08c379a000000000000000000000000000000000000000000000000000000000815260040161211e90613325565b60405180910390fd5b6121308161121f565b15612170576040517f08c379a000000000000000000000000000000000000000000000000000000000815260040161216790613225565b60405180910390fd5b61217c60008383611ccd565b6001600360008473ffffffffffffffffffffffffffffffffffffffff1673ffffffffffffffffffffffffffffffffffffffff16815260200190815260200160002060008282546121cc91906134f9565b92505081905550816002600083815260200190815260200160002060006101000a81548173ffffffffffffffffffffffffffffffffffffffff021916908373ffffffffffffffffffffffffffffffffffffffff160217905550808273ffffffffffffffffffffffffffffffffffffffff16600073ffffffffffffffffffffffffffffffffffffffff167fddf252ad1be2c89b69c2b068fc378daa952ba7f163c4a11628f55a4df523b3ef60405160405180910390a45050565b828054612291906136c4565b90600052602060002090601f0160209004810192826122b357600085556122fa565b82601f106122cc57805160ff19168380011785556122fa565b828001600101855582156122fa579182015b828111156122f95782518255916020019190600101906122de565b5b509050612307919061230b565b5090565b5b8082111561232457600081600090555060010161230c565b5090565b600061233b61233684613471565b613440565b90508281526020810184848401111561235357600080fd5b61235e848285613682565b509392505050565b6000813590506123758161383d565b92915050565b60008135905061238a81613854565b92915050565b60008135905061239f8161386b565b92915050565b6000815190506123b48161386b565b92915050565b600082601f8301126123cb57600080fd5b81356123db848260208601612328565b91505092915050565b6000813590506123f381613882565b92915050565b60006020828403121561240b57600080fd5b600061241984828501612366565b91505092915050565b6000806040838503121561243557600080fd5b600061244385828601612366565b925050602061245485828601612366565b9150509250929050565b60008060006060848603121561247357600080fd5b600061248186828701612366565b935050602061249286828701612366565b92505060406124a3868287016123e4565b9150509250925092565b600080600080608085870312156124c357600080fd5b60006124d187828801612366565b94505060206124e287828801612366565b93505060406124f3878288016123e4565b925050606085013567ffffffffffffffff81111561251057600080fd5b61251c878288016123ba565b91505092959194509250565b6000806040838503121561253b57600080fd5b600061254985828601612366565b925050602061255a8582860161237b565b9150509250929050565b6000806040838503121561257757600080fd5b600061258585828601612366565b9250506020612596858286016123e4565b9150509250929050565b6000602082840312156125b257600080fd5b60006125c084828501612390565b91505092915050565b6000602082840312156125db57600080fd5b60006125e9848285016123a5565b91505092915050565b60006020828403121561260457600080fd5b6000612612848285016123e4565b91505092915050565b6126248161360e565b82525050565b61263381613620565b82525050565b6000612644826134b6565b61264e81856134cc565b935061265e818560208601613691565b6126678161382c565b840191505092915050565b600061267d826134c1565b61268781856134dd565b9350612697818560208601613691565b6126a08161382c565b840191505092915050565b60006126b6826134c1565b6126c081856134ee565b93506126d0818560208601613691565b80840191505092915050565b600081546126e9816136c4565b6126f381866134ee565b9450600182166000811461270e576001811461271f57612752565b60ff19831686528186019350612752565b612728856134a1565b60005b8381101561274a5781548189015260018201915060208101905061272b565b838801955050505b50505092915050565b60006127686025836134ee565b91507f68747470733a2f2f6e6674707265766965772e30786465762e636f6465732f3f60008301527f636f64653d0000000000000000000000000000000000000000000000000000006020830152602582019050919050565b60006127ce6032836134dd565b91507f4552433732313a207472616e7366657220746f206e6f6e20455243373231526560008301527f63656976657220696d706c656d656e74657200000000000000000000000000006020830152604082019050919050565b6000612834601c836134dd565b91507f4552433732313a20746f6b656e20616c7265616479206d696e746564000000006000830152602082019050919050565b60006128746024836134dd565b91507f4552433732313a207472616e7366657220746f20746865207a65726f2061646460008301527f72657373000000000000000000000000000000000000000000000000000000006020830152604082019050919050565b60006128da6019836134dd565b91507f4552433732313a20617070726f766520746f2063616c6c6572000000000000006000830152602082019050919050565b600061291a6063836134ee565b91507f222c20226465736372697074696f6e223a20224120686967686c79206163636c60008301527f61696d656420636f6c6c656374696f6e206f6620737175617265732e222c202260208301527f696d616765223a2022646174613a696d6167652f7376672b786d6c3b6261736560408301527f36342c00000000000000000000000000000000000000000000000000000000006060830152606382019050919050565b60006129cc602c836134dd565b91507f4552433732313a206f70657261746f7220717565727920666f72206e6f6e657860008301527f697374656e7420746f6b656e00000000000000000000000000000000000000006020830152604082019050919050565b6000612a32600d836134ee565b91507f3c2f746578743e3c2f7376673e000000000000000000000000000000000000006000830152600d82019050919050565b6000612a726038836134dd565b91507f4552433732313a20617070726f76652063616c6c6572206973206e6f74206f7760008301527f6e6572206e6f7220617070726f76656420666f7220616c6c00000000000000006020830152604082019050919050565b6000612ad8602a836134dd565b91507f4552433732313a2062616c616e636520717565727920666f7220746865207a6560008301527f726f2061646472657373000000000000000000000000000000000000000000006020830152604082019050919050565b6000612b3e6029836134dd565b91507f4552433732313a206f776e657220717565727920666f72206e6f6e657869737460008301527f656e7420746f6b656e00000000000000000000000000000000000000000000006020830152604082019050919050565b6000612ba4602e836134dd565b91507f45524337323155524953746f726167653a2055524920736574206f66206e6f6e60008301527f6578697374656e7420746f6b656e0000000000000000000000000000000000006020830152604082019050919050565b6000612c0a6002836134ee565b91507f227d0000000000000000000000000000000000000000000000000000000000006000830152600282019050919050565b6000612c4a6020836134dd565b91507f4552433732313a206d696e7420746f20746865207a65726f20616464726573736000830152602082019050919050565b6000612c8a6031836134dd565b91507f45524337323155524953746f726167653a2055524920717565727920666f722060008301527f6e6f6e6578697374656e7420746f6b656e0000000000000000000000000000006020830152604082019050919050565b6000612cf0602c836134dd565b91507f4552433732313a20617070726f76656420717565727920666f72206e6f6e657860008301527f697374656e7420746f6b656e00000000000000000000000000000000000000006020830152604082019050919050565b6000612d566029836134dd565b91507f4552433732313a207472616e73666572206f6620746f6b656e2074686174206960008301527f73206e6f74206f776e00000000000000000000000000000000000000000000006020830152604082019050919050565b6000612dbc602f836134dd565b91507f4552433732314d657461646174613a2055524920717565727920666f72206e6f60008301527f6e6578697374656e7420746f6b656e00000000000000000000000000000000006020830152604082019050919050565b6000612e22600a836134ee565b91507f7b226e616d65223a2022000000000000000000000000000000000000000000006000830152600a82019050919050565b6000612e626021836134dd565b91507f4552433732313a20617070726f76616c20746f2063757272656e74206f776e6560008301527f72000000000000000000000000000000000000000000000000000000000000006020830152604082019050919050565b6000612ec8601d836134ee565b91507f646174613a6170706c69636174696f6e2f6a736f6e3b6261736536342c0000006000830152601d82019050919050565b6000612f086031836134dd565b91507f4552433732313a207472616e736665722063616c6c6572206973206e6f74206f60008301527f776e6572206e6f7220617070726f7665640000000000000000000000000000006020830152604082019050919050565b6000612f6e6021836134dd565b91507f416c6c204e4654732068617665206265656e206d696e7465642c20736f72727960008301527f21000000000000000000000000000000000000000000000000000000000000006020830152604082019050919050565b612fd081613678565b82525050565b6000612fe282846126ab565b915081905092915050565b6000612ff982856126ab565b915061300582846126ab565b91508190509392505050565b600061301d82866126ab565b915061302982856126ab565b915061303582846126ab565b9150819050949350505050565b600061304e82856126dc565b915061305a82846126ab565b915061306582612a25565b91508190509392505050565b600061307c8261275b565b915061308882846126ab565b915081905092915050565b600061309e82612e15565b91506130aa82856126ab565b91506130b58261290d565b91506130c182846126ab565b91506130cc82612bfd565b91508190509392505050565b60006130e382612ebb565b91506130ef82846126ab565b915081905092915050565b600060208201905061310f600083018461261b565b92915050565b600060808201905061312a600083018761261b565b613137602083018661261b565b6131446040830185612fc7565b81810360608301526131568184612639565b905095945050505050565b6000604082019050613176600083018561261b565b6131836020830184612fc7565b9392505050565b600060208201905061319f600083018461262a565b92915050565b600060208201905081810360008301526131bf8184612672565b905092915050565b600060608201905081810360008301526131e18186612672565b90506131f06020830185612fc7565b6131fd604083018461261b565b949350505050565b6000602082019050818103600083015261321e816127c1565b9050919050565b6000602082019050818103600083015261323e81612827565b9050919050565b6000602082019050818103600083015261325e81612867565b9050919050565b6000602082019050818103600083015261327e816128cd565b9050919050565b6000602082019050818103600083015261329e816129bf565b9050919050565b600060208201905081810360008301526132be81612a65565b9050919050565b600060208201905081810360008301526132de81612acb565b9050919050565b600060208201905081810360008301526132fe81612b31565b9050919050565b6000602082019050818103600083015261331e81612b97565b9050919050565b6000602082019050818103600083015261333e81612c3d565b9050919050565b6000602082019050818103600083015261335e81612c7d565b9050919050565b6000602082019050818103600083015261337e81612ce3565b9050919050565b6000602082019050818103600083015261339e81612d49565b9050919050565b600060208201905081810360008301526133be81612daf565b9050919050565b600060208201905081810360008301526133de81612e55565b9050919050565b600060208201905081810360008301526133fe81612efb565b9050919050565b6000602082019050818103600083015261341e81612f61565b9050919050565b600060208201905061343a6000830184612fc7565b92915050565b6000604051905081810181811067ffffffffffffffff82111715613467576134666137fd565b5b8060405250919050565b600067ffffffffffffffff82111561348c5761348b6137fd565b5b601f19601f8301169050602081019050919050565b60008190508160005260206000209050919050565b600081519050919050565b600081519050919050565b600082825260208201905092915050565b600082825260208201905092915050565b600081905092915050565b600061350482613678565b915061350f83613678565b9250827fffffffffffffffffffffffffffffffffffffffffffffffffffffffffffffffff0382111561354457613543613770565b5b828201905092915050565b600061355a82613678565b915061356583613678565b9250826135755761357461379f565b5b828204905092915050565b600061358b82613678565b915061359683613678565b9250817fffffffffffffffffffffffffffffffffffffffffffffffffffffffffffffffff04831182151516156135cf576135ce613770565b5b828202905092915050565b60006135e582613678565b91506135f083613678565b92508282101561360357613602613770565b5b828203905092915050565b600061361982613658565b9050919050565b60008115159050919050565b60007fffffffff0000000000000000000000000000000000000000000000000000000082169050919050565b600073ffffffffffffffffffffffffffffffffffffffff82169050919050565b6000819050919050565b82818337600083830152505050565b60005b838110156136af578082015181840152602081019050613694565b838111156136be576000848401525b50505050565b600060028204905060018216806136dc57607f821691505b602082108114156136f0576136ef6137ce565b5b50919050565b600061370182613678565b91507fffffffffffffffffffffffffffffffffffffffffffffffffffffffffffffffff82141561373457613733613770565b5b600182019050919050565b600061374a82613678565b915061375583613678565b9250826137655761376461379f565b5b828206905092915050565b7f4e487b7100000000000000000000000000000000000000000000000000000000600052601160045260246000fd5b7f4e487b7100000000000000000000000000000000000000000000000000000000600052601260045260246000fd5b7f4e487b7100000000000000000000000000000000000000000000000000000000600052602260045260246000fd5b7f4e487b7100000000000000000000000000000000000000000000000000000000600052604160045260246000fd5b6000601f19601f8301169050919050565b6138468161360e565b811461385157600080fd5b50565b61385d81613620565b811461386857600080fd5b50565b6138748161362c565b811461387f57600080fd5b50565b61388b81613678565b811461389657600080fd5b5056fe416e204e465420772f20494420257320686173206265656e206d696e74656420746f2025734142434445464748494a4b4c4d4e4f505152535455565758595a6162636465666768696a6b6c6d6e6f707172737475767778797a303132333435363738392b2fa2646970667358221220e9007e5a5d44e852fbf55985d153e760873fc68a0ed8e3ca6c124ee810da435764736f6c634300080000333c73766720786d6c6e733d27687474703a2f2f7777772e77332e6f72672f323030302f73766727207072657365727665417370656374526174696f3d27784d696e594d696e206d656574272076696577426f783d273020302033353020333530273e3c7374796c653e2e62617365207b2066696c6c3a2077686974653b20666f6e742d66616d696c793a20417269616c3b20666f6e742d73697a653a20333070783b207d3c2f7374796c653e3c726563742077696474683d273130302527206865696768743d2731303025272066696c6c3d272332453842433027202f3e3c7465787420783d273530252720793d273530252720636c6173733d27626173652720646f6d696e616e742d626173656c696e653d276d6964646c652720746578742d616e63686f723d276d6964646c65273e",
  "linkReferences": {},
  "deployedLinkReferences": {}
}